:1000000010C017C016C052C07AC013C012C011C0B1
:1000100010C061C056C069C00CC00BC00AC079C016
:1000200082C011241FBECFE5D1E0DEBFCDBF32D0EC
:1000300084C0E6CF85E88ABB82E08BBB87E087BBC4
:1000400018BA08958BB780618BBF919A089582EAA0
:1000500087B986B1877D86B9379A369A089580EF39
:1000600080BF87E089BF12BE16BE1CBE84E083BF7E
:1000700008950FB6F894A89581B5886181BD11BC2B
:100080000FBE9EE088E10FB6F894A89581BD0FBE23
:1000900091BD089584B7F894CDDFDA9AD8DFDFDF19
:1000A000E8DFD0DFDA987894A895FECF1F920F9200
:1000B0000FB60F92112412BE0F900FBE0F901F901B
:1000C00018951F920F920FB60F9211240F900FBE2A
:1000D0000F901F9018951F920F920FB60F92112438
:1000E0000F900FBE0F901F9018951F920F920FB692
:1000F0000F9211240F900FBE0F901F9018951F9212
:100100000F920FB60F9211240F900FBE0F901F90F9
:1001100018951F920F920FB60F9211240F900FBED9
:100120000F901F9018951F920F920FB60F921124E7
:0E0130000F900FBE0F901F901895F894FFCF00
:00000001FF
