:1000000010C017C016C058C080C013C012C011C0A5
:1000100010C067C05CC06FC00CC00BC00AC087C0F6
:1000200090C011241FBECFE5D1E0DEBFCDBF3AD0D6
:1000300092C0E6CF80E886BD81E086BD089582E863
:100040008ABB82E08BBB87E087BB18BA089580E14A
:100050008BBF82E082BB089582EA87B986B1877D33
:1000600086B9379A369A089580EF80BF87E089BFB6
:1000700012BE16BE1CBE84E083BF08950FB6F8946E
:10008000A89581B5886181BD11BC0FBE9EE088E155
:100090000FB6F894A89581BD0FBE91BD81B580645F
:1000A00081BD089584B7F894C5DFC9DFD5DFDCDFF3
:1000B000E5DFCDDF7894FFCF1F920F920FB60F923E
:1000C000112412BE0F900FBE0F901F9018951F9213
:1000D0000F920FB60F9211240F900FBE0F901F902A
:1000E00018951F920F920FB60F9211240F900FBE0A
:1000F0000F901F9018951F920F920FB60F92112418
:100100000F900FBE0F901F9018951F920F920FB671
:100110000F9211248F939F939BB382E089278BBB0F
:100120009F918F910F900FBE0F901F9018951F9267
:100130000F920FB60F9211240F900FBE0F901F90C9
:1001400018951F920F920FB60F9211240F900FBEA9
:0A0150000F901F901895F894FFCF50
:00000001FF
