S0100000536D6172745353522E7372656315
S113000010C017C03FC015C05BC013C012C011C0E0
S113001010C04CC041C00DC00CC00BC00AC009C008
S113002008C011241FBECFE5D1E0DEBFCDBF24D070
S113003051C0E6CFF89490E896BD81E086BD9ABBA6
S11300408BBB97E097BB18BA90E19BBF82BB089526
S11300500FB6F894A89581B5886181BD11BC0FBE17
S113006081B5806481BD9EE088E10FB6F894A895BF
S113007081BD0FBE91BD089584B7DCDFE9DF7894BC
S1130080A895FECF1F920F920FB60F9211240F90D6
S11300900FBE0F901F9018951F920F920FB60F92DC
S11300A011240F900FBE0F901F9018951F920F925E
S11300B00FB60F9211240F900FBE0F901F9018953A
S11300C01F920F920FB60F9211240F900FBE0F9034
S10B00D01F901895F894FFCF6E
S9030000FC
